{
  "contractName": "MovieRater",
  "abi": [
    {
      "inputs": [],
      "payable": false,
      "stateMutability": "nonpayable",
      "type": "constructor"
    },
    {
      "constant": true,
      "inputs": [
        {
          "internalType": "string",
          "name": "",
          "type": "string"
        }
      ],
      "name": "movies",
      "outputs": [
        {
          "internalType": "string",
          "name": "name",
          "type": "string"
        },
        {
          "internalType": "uint256",
          "name": "numRatings",
          "type": "uint256"
        },
        {
          "internalType": "uint256",
          "name": "totalScore",
          "type": "uint256"
        }
      ],
      "payable": false,
      "stateMutability": "view",
      "type": "function"
    },
    {
      "constant": true,
      "inputs": [],
      "name": "numMovies",
      "outputs": [
        {
          "internalType": "uint256",
          "name": "",
          "type": "uint256"
        }
      ],
      "payable": false,
      "stateMutability": "view",
      "type": "function"
    },
    {
      "constant": true,
      "inputs": [
        {
          "internalType": "address",
          "name": "",
          "type": "address"
        },
        {
          "internalType": "string",
          "name": "",
          "type": "string"
        }
      ],
      "name": "ratings",
      "outputs": [
        {
          "internalType": "uint256",
          "name": "",
          "type": "uint256"
        }
      ],
      "payable": false,
      "stateMutability": "view",
      "type": "function"
    },
    {
      "constant": false,
      "inputs": [],
      "name": "seeMovies",
      "outputs": [
        {
          "internalType": "string",
          "name": "",
          "type": "string"
        }
      ],
      "payable": false,
      "stateMutability": "nonpayable",
      "type": "function"
    },
    {
      "constant": false,
      "inputs": [
        {
          "internalType": "string",
          "name": "_name",
          "type": "string"
        },
        {
          "internalType": "uint256",
          "name": "_score",
          "type": "uint256"
        }
      ],
      "name": "addRating",
      "outputs": [],
      "payable": false,
      "stateMutability": "nonpayable",
      "type": "function"
    },
    {
      "constant": false,
      "inputs": [
        {
          "internalType": "string",
          "name": "_name",
          "type": "string"
        }
      ],
      "name": "seeRating",
      "outputs": [
        {
          "internalType": "string",
          "name": "",
          "type": "string"
        }
      ],
      "payable": false,
      "stateMutability": "nonpayable",
      "type": "function"
    },
    {
      "constant": false,
      "inputs": [
        {
          "internalType": "string",
          "name": "_name",
          "type": "string"
        },
        {
          "internalType": "uint256",
          "name": "_score",
          "type": "uint256"
        }
      ],
      "name": "editRating",
      "outputs": [],
      "payable": false,
      "stateMutability": "nonpayable",
      "type": "function"
    },
    {
      "constant": false,
      "inputs": [
        {
          "internalType": "string",
          "name": "_name",
          "type": "string"
        }
      ],
      "name": "deleteRating",
      "outputs": [],
      "payable": false,
      "stateMutability": "nonpayable",
      "type": "function"
    }
  ],
  "bytecode": "0x60806040523480156200001157600080fd5b50620000586040518060400160405280600a81526020017f4a616d657320426f6e6400000000000000000000000000000000000000000000815250620000ea60201b60201c565b6200009e6040518060400160405280600881526020017f4176656e67657273000000000000000000000000000000000000000000000000815250620000ea60201b60201c565b620000e46040518060400160405280600981526020017f5374617220576172730000000000000000000000000000000000000000000000815250620000ea60201b60201c565b6200026b565b600080815480929190600101919050555060405180606001604052808281526020016000815260200160008152506001826040518082805190602001908083835b602083106200015057805182526020820191506020810190506020830392506200012b565b6001836020036101000a03801982511681845116808217855250505050505090500191505090815260200160405180910390206000820151816000019080519060200190620001a1929190620001bc565b50602082015181600101556040820151816002015590505050565b828054600181600116156101000203166002900490600052602060002090601f016020900481019282601f10620001ff57805160ff191683800117855562000230565b8280016001018555821562000230579182015b828111156200022f57825182559160200191906001019062000212565b5b5090506200023f919062000243565b5090565b6200026891905b80821115620002645760008160009055506001016200024a565b5090565b90565b611846806200027b6000396000f3fe608060405234801561001057600080fd5b50600436106100885760003560e01c806382aafb461161005b57806382aafb4614610410578063a4ce9bd2146104cb578063c775c1e814610590578063ea5b41861461061357610088565b8063167436211461008d5780632d304caf1461017c578063409fc975146102be57806341e1e4b3146102dc575b600080fd5b610166600480360360408110156100a357600080fd5b81019080803573ffffffffffffffffffffffffffffffffffffffff169060200190929190803590602001906401000000008111156100e057600080fd5b8201836020820111156100f257600080fd5b8035906020019184600183028401116401000000008311171561011457600080fd5b91908080601f016020809104026020016040519081016040528093929190818152602001838380828437600081840152601f19601f8201169050808301925050505050505091929192905050506106d8565b6040518082815260200191505060405180910390f35b6102356004803603602081101561019257600080fd5b81019080803590602001906401000000008111156101af57600080fd5b8201836020820111156101c157600080fd5b803590602001918460018302840111640100000000831117156101e357600080fd5b91908080601f016020809104026020016040519081016040528093929190818152602001838380828437600081840152601f19601f820116905080830192505050505050509192919290505050610713565b6040518080602001848152602001838152602001828103825285818151815260200191508051906020019080838360005b83811015610281578082015181840152602081019050610266565b50505050905090810190601f1680156102ae5780820380516001836020036101000a031916815260200191505b5094505050505060405180910390f35b6102c66107eb565b6040518082815260200191505060405180910390f35b610395600480360360208110156102f257600080fd5b810190808035906020019064010000000081111561030f57600080fd5b82018360208201111561032157600080fd5b8035906020019184600183028401116401000000008311171561034357600080fd5b91908080601f016020809104026020016040519081016040528093929190818152602001838380828437600081840152601f19601f8201169050808301925050505050505091929192905050506107f1565b6040518080602001828103825283818151815260200191508051906020019080838360005b838110156103d55780820151818401526020810190506103ba565b50505050905090810190601f1680156104025780820380516001836020036101000a031916815260200191505b509250505060405180910390f35b6104c96004803603602081101561042657600080fd5b810190808035906020019064010000000081111561044357600080fd5b82018360208201111561045557600080fd5b8035906020019184600183028401116401000000008311171561047757600080fd5b91908080601f016020809104026020016040519081016040528093929190818152602001838380828437600081840152601f19601f8201169050808301925050505050505091929192905050506108e8565b005b61058e600480360360408110156104e157600080fd5b81019080803590602001906401000000008111156104fe57600080fd5b82018360208201111561051057600080fd5b8035906020019184600183028401116401000000008311171561053257600080fd5b91908080601f016020809104026020016040519081016040528093929190818152602001838380828437600081840152601f19601f82011690508083019250505050505050919291929080359060200190929190505050610c57565b005b610598610f7f565b6040518080602001828103825283818151815260200191508051906020019080838360005b838110156105d85780820151818401526020810190506105bd565b50505050905090810190601f1680156106055780820380516001836020036101000a031916815260200191505b509250505060405180910390f35b6106d66004803603604081101561062957600080fd5b810190808035906020019064010000000081111561064657600080fd5b82018360208201111561065857600080fd5b8035906020019184600183028401116401000000008311171561067a57600080fd5b91908080601f016020809104026020016040519081016040528093929190818152602001838380828437600081840152601f19601f82011690508083019250505050505050919291929080359060200190929190505050611216565b005b600260205281600052604060002081805160208101820180518482526020830160208501208183528095505050505050600091509150505481565b600181805160208101820180518482526020830160208501208183528095505050505050600091509050806000018054600181600116156101000203166002900480601f0160208091040260200160405190810160405280929190818152602001828054600181600116156101000203166002900480156107d55780601f106107aa576101008083540402835291602001916107d5565b820191906000526020600020905b8154815290600101906020018083116107b857829003601f168201915b5050505050908060010154908060020154905083565b60005481565b6060816107fd83611521565b6040516020018083805190602001908083835b602083106108335780518252602082019150602081019050602083039250610810565b6001836020036101000a038019825116818451168082178552505050505050905001807f3a2000000000000000000000000000000000000000000000000000000000000081525060020182805190602001908083835b602083106108ac5780518252602082019150602081019050602083039250610889565b6001836020036101000a038019825116818451168082178552505050505050905001925050506040516020818303038152906040529050919050565b6000600260003373ffffffffffffffffffffffffffffffffffffffff1673ffffffffffffffffffffffffffffffffffffffff168152602001908152602001600020826040518082805190602001908083835b6020831061095d578051825260208201915060208101905060208303925061093a565b6001836020036101000a0380198251168184511680821785525050505050509050019150509081526020016040518091039020541415610a05576040517f08c379a000000000000000000000000000000000000000000000000000000000815260040180806020018281038252601e8152602001807f596f752068617665206e6f742072617465642074686973206d6f7669652e000081525060200191505060405180910390fd5b6000600260003373ffffffffffffffffffffffffffffffffffffffff1673ffffffffffffffffffffffffffffffffffffffff168152602001908152602001600020826040518082805190602001908083835b60208310610a7a5780518252602082019150602081019050602083039250610a57565b6001836020036101000a03801982511681845116808217855250505050505090500191505090815260200160405180910390205490506000600260003373ffffffffffffffffffffffffffffffffffffffff1673ffffffffffffffffffffffffffffffffffffffff168152602001908152602001600020836040518082805190602001908083835b60208310610b255780518252602082019150602081019050602083039250610b02565b6001836020036101000a0380198251168184511680821785525050505050509050019150509081526020016040518091039020819055506001826040518082805190602001908083835b60208310610b925780518252602082019150602081019050602083039250610b6f565b6001836020036101000a03801982511681845116808217855250505050505090500191505090815260200160405180910390206001016000815480929190600190039190505550806001836040518082805190602001908083835b60208310610c105780518252602082019150602081019050602083039250610bed565b6001836020036101000a0380198251168184511680821785525050505050509050019150509081526020016040518091039020600201600082825403925050819055505050565b6000600260003373ffffffffffffffffffffffffffffffffffffffff1673ffffffffffffffffffffffffffffffffffffffff168152602001908152602001600020836040518082805190602001908083835b60208310610ccc5780518252602082019150602081019050602083039250610ca9565b6001836020036101000a0380198251168184511680821785525050505050509050019150509081526020016040518091039020541415610d74576040517f08c379a000000000000000000000000000000000000000000000000000000000815260040180806020018281038252601e8152602001807f596f752068617665206e6f742072617465642074686973206d6f7669652e000081525060200191505060405180910390fd5b60018110158015610d86575060058111155b610ddb576040517f08c379a00000000000000000000000000000000000000000000000000000000081526004018080602001828103825260268152602001806117ec6026913960400191505060405180910390fd5b6000600260003373ffffffffffffffffffffffffffffffffffffffff1673ffffffffffffffffffffffffffffffffffffffff168152602001908152602001600020836040518082805190602001908083835b60208310610e505780518252602082019150602081019050602083039250610e2d565b6001836020036101000a0380198251168184511680821785525050505050509050019150509081526020016040518091039020549050806001846040518082805190602001908083835b60208310610ebd5780518252602082019150602081019050602083039250610e9a565b6001836020036101000a038019825116818451168082178552505050505050905001915050908152602001604051809103902060020160008282540392505081905550816001846040518082805190602001908083835b60208310610f375780518252602082019150602081019050602083039250610f14565b6001836020036101000a038019825116818451168082178552505050505050905001915050908152602001604051809103902060020160008282540192505081905550505050565b6060610fbf6040518060400160405280600981526020017f5374617220576172730000000000000000000000000000000000000000000000815250611521565b610ffd6040518060400160405280600881526020017f4176656e67657273000000000000000000000000000000000000000000000000815250611521565b61103b6040518060400160405280600a81526020017f4a616d657320426f6e6400000000000000000000000000000000000000000000815250611521565b60405160200180807f5374617220576172733a20000000000000000000000000000000000000000000815250600b0184805190602001908083835b602083106110995780518252602082019150602081019050602083039250611076565b6001836020036101000a038019825116818451168082178552505050505050905001807f2c20000000000000000000000000000000000000000000000000000000000000815250600201807f4176656e676572733a2000000000000000000000000000000000000000000000815250600a0183805190602001908083835b6020831061113a5780518252602082019150602081019050602083039250611117565b6001836020036101000a038019825116818451168082178552505050505050905001807f2c20000000000000000000000000000000000000000000000000000000000000815250600201807f4a616d657320426f6e643a200000000000000000000000000000000000000000815250600c0182805190602001908083835b602083106111db57805182526020820191506020810190506020830392506111b8565b6001836020036101000a0380198251168184511680821785525050505050509050019350505050604051602081830303815290604052905090565b6000600260003373ffffffffffffffffffffffffffffffffffffffff1673ffffffffffffffffffffffffffffffffffffffff168152602001908152602001600020836040518082805190602001908083835b6020831061128b5780518252602082019150602081019050602083039250611268565b6001836020036101000a03801982511681845116808217855250505050505090500191505090815260200160405180910390205414611315576040517f08c379a00000000000000000000000000000000000000000000000000000000081526004018080602001828103825260228152602001806117ca6022913960400191505060405180910390fd5b60018110158015611327575060058111155b61137c576040517f08c379a00000000000000000000000000000000000000000000000000000000081526004018080602001828103825260268152602001806117ec6026913960400191505060405180910390fd5b80600260003373ffffffffffffffffffffffffffffffffffffffff1673ffffffffffffffffffffffffffffffffffffffff168152602001908152602001600020836040518082805190602001908083835b602083106113f057805182526020820191506020810190506020830392506113cd565b6001836020036101000a0380198251168184511680821785525050505050509050019150509081526020016040518091039020819055506001826040518082805190602001908083835b6020831061145d578051825260208201915060208101905060208303925061143a565b6001836020036101000a038019825116818451168082178552505050505050905001915050908152602001604051809103902060010160008154809291906001019190505550806001836040518082805190602001908083835b602083106114da57805182526020820191506020810190506020830392506114b7565b6001836020036101000a0380198251168184511680821785525050505050509050019150509081526020016040518091039020600201600082825401925050819055505050565b606061168960006001846040518082805190602001908083835b6020831061155e578051825260208201915060208101905060208303925061153b565b6001836020036101000a03801982511681845116808217855250505050505090500191505090815260200160405180910390206001015414611681576001836040518082805190602001908083835b602083106115d057805182526020820191506020810190506020830392506115ad565b6001836020036101000a0380198251168184511680821785525050505050509050019150509081526020016040518091039020600101546001846040518082805190602001908083835b6020831061163d578051825260208201915060208101905060208303925061161a565b6001836020036101000a0380198251168184511680821785525050505050509050019150509081526020016040518091039020600201548161167b57fe5b04611684565b60005b611690565b9050919050565b606060008214156116d8576040518060400160405280600181526020017f300000000000000000000000000000000000000000000000000000000000000081525090506117c4565b600082905060005b60008214611702578080600101915050600a82816116fa57fe5b0491506116e0565b6060816040519080825280601f01601f1916602001820160405280156117375781602001600182028038833980820191505090505b50905060008290505b600086146117bc576001810390506000600a80888161175b57fe5b04028703603001905060008160f81b90508084848151811061177957fe5b60200101907effffffffffffffffffffffffffffffffffffffffffffffffffffffffffffff1916908160001a905350600a88816117b257fe5b0497505050611740565b819450505050505b91905056fe596f75206861766520616c72656164792072617465642074686973206d6f7669652e506c6561736520656e746572206120726174696e67206265747765656e203120616e6420352ea265627a7a72315820d3ceec6cd429ecf87f266d28c2226686f305bd5480aefcc57fd80c9a5185385c64736f6c63430005100032",
  "source": "pragma solidity ^0.5.16;\n\ncontract MovieRater {\n\n    // number of movies in theatres\n    uint public numMovies;\n\n    struct Movie {\n        string name;\n        uint numRatings;\n        uint totalScore;\n    }\n\n    constructor () public{\n        addMovie(\"James Bond\");\n        addMovie(\"Avengers\");\n        addMovie(\"Star Wars\");\n    }\n    // Get movies\n    mapping(string => Movie) public movies;\n\n    // Get raters, list of movies they've rated\n    mapping(address => mapping(string => uint)) public ratings;\n\n    function addMovie(string memory _name) private {\n        numMovies++;\n        movies[_name] = Movie(_name, 0, 0);\n    }\n\n    function seeMovies() public returns (string memory) {\n        return string(abi.encodePacked(\"Star Wars: \", getRating(\"Star Wars\"), \", \",\n            \"Avengers: \", getRating(\"Avengers\"), \", \",\n            \"James Bond: \", getRating(\"James Bond\")));\n    }\n\n\n    /**\n     * Add rating to a movie\n     * @param _name: name of the movie to rate\n\t * @param _score: score of 1 - 5 received by the movie\n\t */\n    function addRating(string memory _name, uint _score) public {\n\n       /* require(!ratings[msg.sender][_name]);\n        require(_score >= 1 && _score <= 5);\n\n        // keep track the rater has rated this movie\n        ratings[msg.sender][_name] = _score;\n\n        // update ratings\n        movies[_name].numRatings++;\n        movies[_name].totalScore += _score;*/\n\n        require(ratings[msg.sender][_name] == 0, \"You have already rated this movie.\");\n        require(_score >= 1 && _score <= 5, \"Please enter a rating between 1 and 5.\");\n\n        // keep track the rater has rated this movie\n        ratings[msg.sender][_name] = _score;\n\n        // update ratings\n        movies[_name].numRatings++;\n        movies[_name].totalScore += _score;\n    }\n\n   /* *//**\n     * Get rating of a movie.\n     * @param _name: name of the movie\n\t *//*\n    function getRating(string memory _name) public returns (uint) {\n        return movies[_name].numRatings == 0 ? 0 :\n        movies[_name].totalScore / movies[_name].numRatings;\n    }*/\n\n    /**\n\t * See the current overall ratings of a movie.\n\t * @param _name: name of the movie\n\t */\n    function seeRating(string memory _name) public returns (string memory) {\n        return string(abi.encodePacked(_name, \": \", getRating(_name)));\n    }\n\n    /**\n\t * Edit rating of a movie\n\t * @param _name: name of the movie to rate\n\t * @param _score: score of 1 - 5 received by the movie\n\t */\n    function editRating(string memory _name, uint _score) public {\n\n        require(ratings[msg.sender][_name] != 0, \"You have not rated this movie.\");\n        require(_score >= 1 && _score <= 5, \"Please enter a rating between 1 and 5.\");\n\n        uint prevRating = ratings[msg.sender][_name];\n\n        movies[_name].totalScore -= prevRating;\n        movies[_name].totalScore += _score;\n\n    }\n\n    /**\n     * Delete your rating of a movie.\n     * @param _name: name of the movie\n\t */\n    function deleteRating(string memory _name) public {\n\n        require(ratings[msg.sender][_name] != 0, \"You have not rated this movie.\");\n\n        uint prevRating = ratings[msg.sender][_name];\n        ratings[msg.sender][_name] = 0;\n\n        movies[_name].numRatings--;\n        movies[_name].totalScore -= prevRating;\n\n    }\n\n    /**\n\t * Get rating of a movie.\n\t * @param _name: name of the movie\n\t */\n    function getRating(string memory _name) private returns (string memory) {\n        return uint2str(movies[_name].numRatings == 0 ? 0 :\n            movies[_name].totalScore / movies[_name].numRatings);\n    }\n\n    /**\n     * Helper function, converts int to str\n     * _i: int to convert to str\n      */\n    function uint2str(uint _i) internal pure returns (string memory _uintAsString) {\n        if (_i == 0) {\n            return \"0\";\n        }\n        uint j = _i;\n        uint len;\n        while (j != 0) {\n            len++;\n            j /= 10;\n        }\n        bytes memory bstr = new bytes(len);\n        uint k = len;\n        while (_i != 0) {\n            k = k-1;\n            uint8 temp = (48 + uint8(_i - _i / 10 * 10));\n            bytes1 b1 = bytes1(temp);\n            bstr[k] = b1;\n            _i /= 10;\n        }\n        return string(bstr);\n    }\n}\n",
  "sourcePath": "/Users/vellaisamysudalaimuthu/BlockChain/Blockchain-MovieRater1/contracts/MovieRater.sol",
  "compiler": {
    "name": "solc",
    "version": "0.5.16+commit.9c3226ce.Emscripten.clang"
  },
  "schemaVersion": "3.4.3",
  "updatedAt": "2021-10-30T16:49:27.013Z",
  "networkType": "ethereum",
  "devdoc": {
    "methods": {
      "addRating(string,uint256)": {
        "params": {
          "_name": ": name of the movie to rate",
          "_score": ": score of 1 - 5 received by the movie"
        }
      },
      "deleteRating(string)": {
        "params": {
          "_name": ": name of the movie"
        }
      },
      "editRating(string,uint256)": {
        "params": {
          "_name": ": name of the movie to rate",
          "_score": ": score of 1 - 5 received by the movie"
        }
      },
      "seeRating(string)": {
        "params": {
          "_name": ": name of the movie"
        }
      }
    }
  },
  "userdoc": {
    "methods": {
      "addRating(string,uint256)": {
        "notice": "Add rating to a movie"
      },
      "deleteRating(string)": {
        "notice": "Delete your rating of a movie."
      },
      "editRating(string,uint256)": {
        "notice": "Edit rating of a movie"
      },
      "seeRating(string)": {
        "notice": "See the current overall ratings of a movie."
      }
    }
  }
}